:020000040000FA
:06000000D8EF0CF0120025
:0A0006000400F9190000FA000000E0
:1000100002000000F5190000F600000004000000D6
:10002000EE190000EF00000007000000E7190000D3
:08003000FC00000001000000CB
:08003800050E0001BB1901E1F6
:10004000BC512FE0040EBB1901E1BC5125E0030EA9
:10005000BB1901E1BC511DE0020EBB1901E1BC510D
:1000600013E0010EBB1901E1BC5109E0BB5101E1F4
:10007000BC5102E0000E1AD08250010B17D0825002
:10008000020B01E0010E12D08250040B01E0010EC0
:100090000DD08350010B0AD08350100B01E0010EEC
:1000A00005D08350400B01E0010E00D01200D9CFE3
:1000B000E6FFE1CFD9FF030EE1260001B60518E106
:1000C000020EB7C0DBFFDB0611E1B951010B02E004
:1000D000808001D08090D890BA33B933030EF36E8C
:1000E000020EF3CFDBFFB80701E1B66BDBCFB7F051
:1000F000B45149E10001FC5115E00001BE0711E1D6
:100100000001FC6B0001B56BB251EA6A920FE96E17
:10011000000EEA22C0C0EFFFB22B200EB25D01E359
:10012000B26B31D00001B5510FE186DFDF6EDF50D9
:100130000AE10001010EB56FC06B040EBE6F080E20
:10014000BF6F010EBD6F1FD0020EBEC0DBFFDB060E
:1001500017E1030EF36E020EF3CFDBFF6DDFE76EE8
:10016000010EE7CFDBFFDB5003E00001BD51C01300
:100170000001BD9FBD47BF0703E10001010EFC6FF9
:10018000020EDBCFBEF0030EE15C02E2E16AE55253
:10019000E16EE552E7CFD9FF1200948082909482FD
:1001A0008292948482949580839095888398958C8C
:1001B000839C1200D9CFE6FFE1CFD9FF0C0EE126D8
:1001C000D9CFE9FFDACFEAFF4F0EEE6E6C0EEE6E7E
:1001D000610EEE6E0A0EEE6E0D0EEE6E500EEE6EAF
:1001E000490EEE6E430EEE6E3A0EEE6E5C0EEE6E45
:1001F0003E0EEE6EEE6A0001B66BB56BB46B80809E
:10020000CCDFDE0EE66E190EE66E83D8E552E552BF
:100210000C0EE15C02E2E16AE552E16EE552E7CFE5
:10022000D9FF120012000001B46B12000001010E90
:10023000B46F1200D9CFE6FFE1CFD9FFE65200013B
:10024000B251B35D02E1EEDFFAD7B351EA6A920F21
:10025000E96E000EEA22EFCFDFFFB32B200EB35D75
:1002600001E3B36BDF5000D0E552E552E7CFD9FF91
:1002700012000001B351B25D02E1000E01D0010E87
:1002800000D012000001B26BB36B12000001B60582
:1002900002E1010E01D0000E00D01200D9CFE6FF1E
:1002A000E1CFD9FF0001B60501E1FCD7030EB76F1E
:1002B0000A0EB86FFE0EDB50E824B96FBA6B800BE4
:1002C00001E0BA69B951020EBA13010EB66FE552D8
:1002D000E7CFD9FF1200D9CFE6FFE1CFD9FFFD0E5E
:1002E000DBCFE9FFFE0EDBCFEAFFEF500EE0FD0EA5
:1002F000DBCFE9FFDB2AFE0EDBCFEAFF01E3DB2ADF
:10030000EF50E66ECBDFE552EAD7E552E7CFD9FFF3
:100310001200D9CFE6FFE1CFD9FFFD0EDBCFE9FF19
:10032000FE0EDBCFEAFFEF50E66EB8DFE552FD0EC2
:10033000DBCFE9FFDB2AFE0EDBCFEAFF01E3DB2A9E
:0C034000EF50EBE1E552E7CFD9FF1200CF
:04034C00D9CFE6FF20
:10035000E1CFD9FFE652DF6AE6EC0CF0F3CF10F004
:10036000F4CF11F00001F351E96EEA6AD890E93652
:10037000EA36C90EE926000EEA221050EE26115088
:10038000ED22F32B040EF35D2BE3F36BF42B100E35
:10039000F45D26E3F46BDF6A040EDF5C1CE2EA6ABC
:1003A000DF34FE0BEA36E96EC90EE926000EEA22BA
:1003B000EECF10F0EFCF11F0EA6ADF34FE0BEA3631
:1003C000E96EC10EE926000EEA2210C0EEFF11C050
:1003D000EDFFDF2AE1D70001F36BF46B010EF56F3F
:1003E000F5510BE1F351EA6AEF0FE96E000EEA22D4
:1003F000EF50E66E72EC0CF0E552E552E552E7CFB5
:04040000D9FF12000E
:020404001200E4
:020406001200E2
:060408006CEF0BF0120086
:02040E00D9CF44
:10041000E6FFE1CFD9FF060EE126020EDB6A030EEE
:10042000DB6A040EDB6A050EDB6A800EE66EFAD824
:10043000E552738AF90EDBCFE6FFFA0EDBCFE6FF5B
:10044000FB0EDBCFE6FFFC0EDBCFE6FFFD0EDBCFC6
:10045000E6FFFE0EDBCFE6FFF8D8106E060EE15E7B
:100460001050F90EDB50600B606EF90EDB50100B74
:10047000FF0801E1608460CF50FFF70EE66ED950AF
:10048000020FE96EDACFEAFFEECFE6FFEECFE6FF2E
:10049000EECFE6FFEFCFE6FFE66ACDDA106E060E8E
:1004A000E15E1050F70EE66ED950020FE96EDACF1A
:1004B000EAFFEECFE6FFEECFE6FFEECFE6FFEFCFAF
:1004C000E6FF010EE66EB7DA106E060EE15E105022
:1004D000F90EDB50600B9F09BF0A0CE0600A05E0D3
:1004E000DF68DE52F70EDD6E09D0F70EDF6EDE52EA
:1004F000DD6E04D0DF68010EDB6800D0DFCFE6FFE1
:10050000D950020FE96EDACFEAFFEECFE6FFEECF69
:10051000E6FFEECFE6FFEFCFE6FFE66AC2DA106E47
:10052000060EE15E1050DFCFE6FFD950020FE96EF4
:10053000DACFEAFFEECFE6FFEECFE6FFEECFE6FF43
:10054000EFCFE6FF010EE66EACDA106E060EE15E4E
:100550001050010EDBCFE6FFD950020FE96EDACF63
:10056000EAFFEECFE6FFEECFE6FFEECFE6FFEFCFFE
:10057000E6FF020EE66E95DA106E060EE15E105092
:10058000010EDBCFE6FFD950020FE96EDACFEAFFAA
:10059000EECFE6FFEECFE6FFEECFE6FFEFCFE6FFD2
:1005A000030EE66E7EDA106E060EE15E1050010E4E
:1005B000DBCFE6FFD950020FE96EDACFEAFFEECFCC
:1005C000E6FFEECFE6FFEECFE6FFEFCFE6FF040E4D
:1005D000E66E67DA106E060EE15E1050010EDBCF9C
:1005E000E6FFD950020FE96EDACFEAFFEECFE6FF61
:1005F000EECFE6FFEECFE6FFEFCFE6FF050EE66EAD
:1006000050DA106E060EE15E1050E66A0BD8E55225
:10061000060EE15C02E2E16AE552E16EE552E7CFE7
:10062000D9FF1200D9CFE6FFE1CFD9FFFE0EDB5094
:100630006F6EE00E6E14106EFE0EDB50105C01E06B
:10064000F8D7E552E7CFD9FF1200D9CFE6FFE1CFC7
:10065000D9FFFE0EDB06FD0EDB06FC0EDB06FB0EF5
:10066000DB06FA0EDB06FE0EDB50400DF350706E1B
:10067000FD0EDB507012FC0EDB50080DF350716E56
:10068000FA0EDB507112F90EDBA4718CDBB0718EA7
:10069000FB0EDB50726EF90EDBB2728CE552E7CFC7
:1006A000D9FF1200D9CFE6FFE1CFD9FF020EE12634
:1006B000D950F90F106EFF0EDA20116E10C0DEFF58
:1006C00011C0DDFFF80EDBA63BD0DECFE9FFDDCFAA
:1006D000EAFFEF50E840E840E8401F0BE66EFD0EF1
:1006E000DBCFE9FFFE0EDBCFEAFFE552E750EF6E0E
:1006F000DECFE9FFDDCFEAFFEE52EF50200DF3CF62
:1007000010F0FD0EDBCFE9FFFE0EDBCFEAFF10504D
:10071000EF12FD0EDB2AFE0E01E3DB2ADECFE9FF3E
:10072000DDCFEAFFEF50200DF350E66EFD0EDBCF7C
:10073000E9FFFE0EDBCFEAFFE552E750EF6E88D00F
:10074000DECFE9FFDDCFEAFF020EE926000EEA2246
:10075000EF50E00BE838E840E66EFD0EDBCFE9FF36
:10076000FE0EDBCFEAFFE552E750EF6EDECFE9FF8A
:10077000DDCFEAFF030EE926000EEA22EF50080D56
:10078000F3CF10F0FD0EDBCFE9FFFE0EDBCFEAFF6B
:100790001050EF12FD0EDB2AFE0E01E3DB2ADECF46
:1007A000E9FFDDCFEAFF020EE926000EEA22EF5054
:1007B000080DF350E00BE66EFD0EDBCFE9FFFE0EF9
:1007C000DBCFEAFFE552E750EF6EFD0EDBCFE9FF2E
:1007D000FE0EDBCFEAFFEF86DECFE9FFDDCFEAFFDB
:1007E000020EE926000EEA22EF50030B106EFD0EFA
:1007F000DBCFE9FFFE0EDBCFEAFF1050EF12FD0E5C
:10080000DB2AFE0E01E3DB2ADECFE9FFDDCFEAFFC4
:10081000EE52EF50E66EFD0EDBCFE9FFFE0EDBCFB2
:10082000EAFFE552E750EF6EFD0EDB2AFE0E01E314
:10083000DB2ADECFE9FFDDCFEAFFEF50E66EFD0EEB
:10084000DBCFE9FFFE0EDBCFEAFFE552E750EF6EAC
:10085000020EE15C02E2E16AE552E16EE552E7CFA9
:10086000D9FF1200D9CFE6FFE1CFD9FF020EE12672
:10087000FB0EDBCFDEFFDBCFDDFFFA0EDBA64DD0BC
:10088000FD0EDBCFE9FFFE0EDBCFEAFFEF50080DD8
:10089000F350E66EDECFE9FFDDCFEAFFE552E75029
:1008A000EF6EFD0EDBCFE9FFFE0EDBCFEAFFEF5070
:1008B000E00BE838E840E66EDECFE9FFDDCFEAFF87
:1008C000EE52E552E750EF6EFD0EDB2AFE0E01E31D
:1008D000DB2AFD0EDBCFE9FFFE0EDBCFEAFFEF5098
:1008E000E00BE838E840106EDECFE9FFDDCFEAFF2D
:1008F0001050EF12DECFE9FFDDCFEAFF020EE9264E
:10090000000EEA22EF6ADECFE9FFDDCFEAFF030E39
:10091000E926000EEA22EF6A84D0FD0EDBCFE9FF64
:10092000FE0EDBCFEAFFEF50200DF350E66EDECF78
:10093000E9FFDDCFEAFF020EE926000EEA22E552CA
:10094000E750EF6EFD0EDBCFE9FFFE0EDBCFEAFFD7
:10095000EF50E840E840E8401F0BE66EDECFE9FFCD
:10096000DDCFEAFF030EE926000EEA22E552E7504A
:10097000EF6EFD0EDB2AFE0E01E3DB2AFD0EDBCF60
:10098000E9FFFE0EDBCFEAFFEF50030B106EDECF68
:10099000E9FFDDCFEAFF020EE926000EEA22105041
:1009A000EF12FD0EDBCFE9FFFE0EDBCFEAFFEF50CB
:1009B000E00BE840E840E8401F0B106EDECFE9FF97
:1009C000DDCFEAFF020EE926000EEA221050EF12F8
:1009D000FD0EDB2AFE0E01E3DB2AFD0EDBCFE9FF75
:1009E000FE0EDBCFEAFFEF50E66EDECFE9FFDDCF94
:1009F000EAFFEE52E552E750EF6EFD0EDB2AFE0EE7
:100A000001E3DB2AFD0EDBCFE9FFFE0EDBCFEAFFC1
:100A1000EF50E66EDECFE9FFDDCFEAFFE552E750AB
:100A2000EF6E020EE15C02E2E16AE552E16EE55230
:100A3000E7CFD9FF1200D9CFE6FFE1CFD9FF020EF1
:100A4000E126FE0EDB5005E1180EDE6E0F0EDD6EA8
:100A500004D01C0EDE6E0F0EDD6EF90EDBCFE6FF4E
:100A6000D950FA0FE96EFF0EDA20EA6EEECFE6FFFC
:100A7000EECFE6FFEECFE6FFEFCFE6FFDECFE6FFFD
:100A8000DDCFE6FF0FDE106E070EE15E1050020EA6
:100A9000E15C02E2E16AE552E16EE552E7CFD9FF9F
:100AA0001200D9CFE6FFE1CFD9FF020EE126FE0EFC
:100AB000DB50040A21E0070A1AE0010A13E0030AE6
:100AC0000CE0010A05E0140EDE6E0F0EDD6E19D08B
:100AD000000EDE6E0F0EDD6E14D0040EDE6E0F0EF5
:100AE000DD6E0FD0080EDE6E0F0EDD6E0AD00C0E1E
:100AF000DE6E0F0EDD6E05D0100EDE6E0F0EDD6E9B
:100B000000D0F90EDBCFE6FFD950FA0FE96EFF0EE9
:100B1000DA20EA6EEECFE6FFEECFE6FFEECFE6FF9D
:100B2000EFCFE6FFDECFE6FFDDCFE6FFBBDD106EE9
:100B3000070EE15E1050020EE15C02E2E16AE5524E
:100B4000E16EE552E7CFD9FF1200D9CFE6FFE1CF42
:100B5000D9FF030EE1260F0140B704D0F10E6F1646
:100B60006F8611D00F0130B705D0F10E6F16060E4B
:100B70006F1209D00F0120B704D0F10E6F166F84E9
:100B800002D0000E71D0F70EDB50030B606EF70E33
:100B9000DBB61AD0F70EE66ED950FB0FE96EFF0EEA
:100BA000DA20EA6EEECFE6FFEECFE6FFEECFE6FF0D
:100BB000EFCFE6FF610EE66E0F0EE66E73DD106E90
:100BC000070EE15E105018D0E668D950FB0FE96EB1
:100BD000FF0EDA20EA6EEECFE6FFEECFE6FFEECFB5
:100BE000E6FFEFCFE6FF610EE66E0F0EE66E5ADD12
:100BF000106E070EE15E1050F80EDB50656EF70EBA
:100C0000DBAC658CD950010FE96EDACFEAFF660ED6
:100C1000EE6E0F0EED6EDF6AF80EDB50DF5C1FE24A
:100C2000DF50E76EF90EDBCFE9FFFA0EDBCFEAFF0C
:100C3000E750E926000EEA22EF50E66EDF50E76E3D
:100C4000010EDBCFE9FF020EDBCFEAFFE750E9261A
:100C5000000EEA22E552E750EF6EDF2ADDD760860C
:100C6000F10E6F16010E00D0106E030EE15C02E271
:100C7000E16AE552E16E1050E552E7CFD9FF12006C
:100C8000D9CFE6FFE1CFD9FF040EE126F70EDBCF87
:100C9000E9FFF80EDBCFEAFFEF6A60AE2AD0F10E73
:100CA0006F16010EF36E030EF3CFDBFFA49074AE4C
:100CB00008D0F70EDBCFE9FFF80EDBCFEAFFEF86B7
:100CC000749E60A415D0070E6014106EF70EDBCF73
:100CD000E9FFF80EDBCFEAFF1050EF12010E106EA5
:100CE000F70EDBCFE9FFF80EDBCFEAFF1050EF166F
:100CF0003BD00F0150AF36D0F10E6F160A0E6F12B7
:100D0000030EDB6AA49274AC08D0F70EDBCFE9FFC8
:100D1000F80EDBCFEAFFEF86749C070E5015106EBD
:100D2000F70EDBCFE9FFF80EDBCFEAFF1050EF1232
:100D3000F70EDBCFE9FFF80EDBCFEAFFEFCF10F0C5
:100D4000020EE76E1018E8AE02D0E73402D0E7508A
:100D5000105C07E2F70EDBCFE9FFF80EDBCFEAFF0E
:100D6000EF8E02D0000E87D00F0E6514E66EF90EDE
:100D7000DBCFE9FFFA0EDBCFEAFFE552E750EF6E7B
:100D800065AC07D0F70EDBCFE9FFF80EDBCFEAFF4B
:100D9000EF8C62A619D0F70EDBCFE9FFF80EDBCFA0
:100DA000EAFFEF8AF70EE66EFD0EDBCFE6FFFE0EE2
:100DB000DBCFE6FF610EE66E0F0EE66E53DD106EC2
:100DC000050EE15E105010D0E668FD0EDBCFE6FFA9
:100DD000FE0EDBCFE6FF610EE66E0F0EE66E42DD25
:100DE000106E050EE15E1050D950010FE96EDACF9A
:100DF000EAFF660EEE6E0F0EED6EDF6AF90EDBCFC8
:100E0000E9FFFA0EDBCFEAFFEF50DF5C1FE2DF50B5
:100E1000E76E010EDBCFE9FF020EDBCFEAFFE75002
:100E2000E926000EEA22EF50E66EDF50E76EFB0E79
:100E3000DBCFE9FFFC0EDBCFEAFFE750E926000E2F
:100E4000EA22E552E750EF6EDF2AD8D7F10E6F168F
:100E5000A4AE08D0F70EDBCFE9FFF80EDBCFEAFF38
:100E6000EF88A49E030EDB5002E0609E02D00F01CB
:100E7000509F010E00D0106E040EE15C02E2E16AA8
:100E8000E552E16E1050E552E7CFD9FF1200D9CFFD
:100E9000E6FFE1CFD9FF080EE126DF0EE66E020E77
:100EA000E66E030EE66E020EE66EE66E010EE66E6E
:100EB00007EC02F0106E060EE15E1050780EDF6E49
:100EC000F40EE66E080EE66ED9CFE6FFDACFE6FF47
:100ED000040EE66EE66EE66EE66E37DE106E080E07
:100EE000E15E1050080EE15C02E2E16AE552E16E5B
:080EF000E552E7CFD9FF120023
:080EF800000168816893688520
:100F000068976889689B688D0001680ED16F680ECC
:100F1000D26FF6C0D3F0F7C0D4F0F8C0D5F0F9C066
:100F2000D6F0F30ED96F500EDA6FDB6B040EDC6F68
:100F3000F40EE66E050EE66ED10EE66E000EE66E5F
:100F4000D9C0E6FFDAC0E6FFDBC0E6FFDCC0E6FFA3
:100F5000A5EC05F0106E080EE15E1050120069C09D
:100F6000D1F06EC0D2F073C0D3F078C0D4F07DC0A1
:100F7000D5F082C0D6F00001F40ED96F500EDA6FB2
:100F8000DB6B040EDC6FF40EE66E060EE66ED10E21
:100F9000E66E000EE66ED9C0E6FFDAC0E6FFDBC003
:100FA000E6FFDCC0E6FFA5EC05F0106E080EE15E82
:100FB000105012006AC0D1F06FC0D2F074C0D3F0EC
:100FC00079C0D4F07EC0D5F083C0D6F00001F50E14
:100FD000D96F500EDA6FDB6B040EDC6FF40EE66E29
:100FE000060EE66ED10EE66E000EE66ED9C0E6FF86
:100FF000DAC0E6FFDBC0E6FFDCC0E6FFA5EC05F0EB
:10100000106E080EE15E105012006DC0D1F072C07B
:10101000D2F077C0D3F07CC0D4F081C0D5F086C0C8
:10102000D6F00001F60ED96F500EDA6FDB6B040EAE
:10103000DC6FF40EE66E060EE66ED10EE66E000E66
:10104000E66ED9C0E6FFDAC0E6FFDBC0E6FFDCC033
:10105000E6FFA5EC05F0106E080EE15E10501200E0
:101060006BC0D1F070C0D2F075C0D3F07AC0D4F0AC
:101070007FC0D5F084C0D6F00001F30ED96F500EBA
:10108000DA6FDB6B040EDC6FF40EE66E060EE66EB6
:10109000D10EE66E000EE66ED9C0E6FFDAC0E6FFBE
:1010A000DBC0E6FFDCC0E6FFA5EC05F0106E080E25
:1010B000E15E105012006CC0D1F071C0D2F076C069
:1010C000D3F07BC0D4F080C0D5F085C0D6F000014D
:1010D000F70ED96F500EDA6FDB6B040EDC6FF40E77
:1010E000E66E060EE66ED10EE66E000EE66ED9C016
:1010F000E6FFDAC0E6FFDBC0E6FFDCC0E6FFA5ECFA
:0C11000005F0106E080EE15E10501200A9
:04110C00D9CFE6FF52
:10111000E1CFD9FF060EE126020EDB6A030EDB6A81
:10112000DE6ADD6AFD0EDBCF10F0FE0EDBCF11F0C4
:10113000DE501024E96EDD501120EA6EEF5057E0CA
:10114000DECF12F0DDCF13F0D890135004E6080E76
:10115000125C000E13584BE2FD0EDBCF10F0FE0EBA
:10116000DBCF11F0DE501024E96EDD501120EA6E65
:10117000EF50E66E51D8E552040EF3CFDBFF050EBB
:10118000F4CFDBFFD950040FE96EDACFEAFFFF0E90
:10119000EE1802E1FF0EED180BE1020EDBCF10F0AE
:1011A000030EDBCF11F010C0F3FF11C0F4FF2AD003
:1011B000020EDBCF12F0030EDBCF13F0040ED8903B
:1011C00012361336E806FBE1040EDB501224106ED3
:1011D000050EDB501320116E020E10C0DBFF030E54
:1011E00011C0DBFFDF2A010E01E3DB2A9BD7020ED1
:1011F000DBCF10F0030EDBCF11F010C0F3FF11C0F6
:10120000F4FF00D0060EE15C02E2E16AE552E16E15
:10121000E552E7CFD9FF1200D9CFE6FFE1CFD9FFE2
:10122000300E106EFE0EDB50D88010540EE3FE0E12
:10123000DB5039080AE3FE0EDB50D00F106E116A46
:1012400010C0F3FF11C0F4FF2FD0410E106EFE0E40
:10125000DB50D88010540FE3FE0EDB5046080BE342
:10126000FE0EDB50BF0F0A0F106E116A10C0F3FFA5
:1012700011C0F4FF19D0610E106EFE0EDB50D88045
:1012800010540FE3FE0EDB5066080BE3FE0EDB503E
:101290009F0F0A0F106E116A10C0F3FF11C0F4FF08
:1012A00003D0F368F46800D0E552E7CFD9FF12000D
:1012B000D9CFE6FFE1CFD9FF030EE126EC0EDE6EBB
:1012C000DD68010EF36E020EF3CFDBFF020EF76A4C
:1012D000DB34FE0BF736F66E800EF626150EF7227F
:1012E0000900F5CF10F00800F5CF11F0FD0EDBCFAF
:1012F00012F0FE0EDBCF13F01250105C1350115899
:1013000013E2020EDB50146E156AD890155004E6F5
:10131000A00E145C000E155807E2020EDB2ADF2A2D
:10132000010E01E3DB2AD2D7DECF10F0DDCF11F0C2
:10133000113404E31050EC08FF0E115467E2DECFC5
:1013400012F0DDCF13F00A0E1302F3CF13F01202E6
:10135000F3CF12F0F4501326020EF76ADB34FE0BC3
:10136000F736F66E800EF626150EF7220900F5CF39
:101370001AF00800F5CF1BF0020EDB04F66EF76AD8
:10138000D890F636F736800EF626150EF7220900AD
:10139000F5501A5C186E0900F5501B58196EFD0EB9
:1013A000DBCF16F0FE0EDBCF17F0020EDB04F66E7D
:1013B000F76AD890F636F736800EF626150EF72225
:1013C0000900F550165C146E0900F5501758156E9B
:1013D0000A0E1502F3CF15F01402F3CF14F0F450F7
:1013E000152614C006F015C007F018C00BF019C080
:1013F0000CF0A2EC0CF012500624106E13500720D3
:10140000116E10C0DEFF11C0DDFF04D0190EDE6EBC
:10141000FC0EDD6EDECF10F0DDCF11F010C0F3FF5B
:1014200011C0F4FF030EE15C03E200D0E16AE55273
:0A143000E16EE552E7CFD9FF12008C
:06143A0039EC01F000098D
:1014400005E01AEC01F0E66E24D8E552020E000128
:10145000E76E9119E8AE02D0E73402D0E750915D13
:1014600001E301D81200D9CFE6FFE1CFD9FFE65260
:101470000001916B0001FB2BFA6B42EC01F0060EB0
:101480000001FB5D01E1FB6BE552E552E7CFD9FFBF
:101490001200D9CFE6FFE1CFD9FF0001916BFE0E1C
:1014A000DB503E080FE10001FA6BFA51FA2BE96EAE
:1014B000EA6AE9BEEA68600EE926000EEA22300E0A
:1014C000EF6E5AD0000E0001E76EFA19E8AE02D0B6
:1014D000FA3503D0E750D880FA554EE2FE0EDB50C5
:1014E0000D083CE12D0E0001625D38E10001FA6B50
:1014F000600EE66E000EE66E86EC08F0E552E552F0
:10150000F350E66EFBC0E9FFEA6AE9BEEA68050E41
:10151000EA02F3CFEAFFE902F3CFE9FFF450EA264B
:10152000690EE926000EEA22E552E750EF6EFBC095
:10153000E9FFEA6AE9BEEA68050EEA02F3CFEAFFCC
:10154000E902F3CFE9FFF450EA26690EE926000E1E
:10155000EA22EE5265C0EFFF86DF0ED00001FA519D
:10156000FA2BE96EEA6AE9BEEA68600EE926000E27
:10157000EA22FE0EDBCFEFFFE552E7CFD9FF1200E4
:101580003E65E4658A663067D6677C682369C96909
:10159000706A176BBD6B646C0B6DB16D586EFF6E2E
:1015A000A66F4C70F3709A714172E7728E73347447
:1015B000DB7481752876CE7674771A78C078667970
:1015C0000C7AB27A577BFD7BA27C477DEC7D917EC5
:1015D000367FDA7F7E802381C6816A820E83B18363
:1015E0005484F7849A853D86DF8681872388C58861
:1015F0006689078AA88A498BE98B898C298DC88DD1
:10160000688E078FA58F4490E29080911D92BB92C7
:101610005893F49391942D95C8956496FF969A9754
:101620003498CE986899019A9A9A339BCB9B639C85
:10163000FB9C929D299EC09E569FEC9F82A017A165
:10164000ACA140A2D4A268A3FBA38EA421A5B3A5FC
:1016500045A6D6A667A7F8A788A818A9A7A936AA55
:10166000C5AA53ABE1AB6FACFCAC89AD15AEA1AE76
:101670002CAFB8AF42B0CCB056B1DEB166B2EDB26D
:1016800073B3F8B37CB4FFB480B501B680B6FDB6D1
:1016900079B7F3B76CB8E3B859B9CDB93FBAAFBAB7
:1016A0001DBB89BBF4BB5CBCC2BC26BD88BDE8BD0C
:1016B00045BEA0BEF9BE4FBFA3BFF5BF44C090C09A
:1016C000D180B8EC0CF047EC07F0F4EC0CF08AECAD
:1016D0000CF00400FCD71200DACFE4FFE2CFDAFF0F
:1016E000E9CFE4FFEACFE4FFF6CFE4FFF7CFE4FF72
:1016F000F5CFE4FFF3CFE4FFF4CFE4FFFACFE4FF4C
:1017000000EE00F0100EE80403E3EECFE4FFFBD799
:1017100000EE10F00C0EE80403E3EECFE4FFFBD77D
:10172000E652F2A42FD0F2940B0EE66EFE0EE66E99
:101730003AEC0CF0E552E5520001EB2B000EEC23E5
:10174000D890EC5104E6680EEB5D010EEC590AE30B
:10175000EB6BEC6B0001ED2B000EEE23010E000194
:10176000E76FE86B0A0E0001EEAF02D0D89003D00D
:10177000ED5D000EEE5906E3ED6BEE6B010E000120
:10178000E96FEA6B9EAC03D09E9CA6EC01F0E5529B
:1017900000EE1BF00C0EE80403E3E5CFEDFFFBD7F2
:1017A00000EE0FF0100EE80403E3E5CFEDFFFBD7EA
:1017B000E5CFFAFFE5CFF4FFE5CFF3FFE5CFF5FF87
:1017C000E5CFF7FFE5CFF6FFE5CFEAFFE5CFE9FF8D
:0617D000E5CFDAFF110075
:0A17D600060EF66E000EF76E000E10
:1017E000F86E00010900F550E26F0900F550E36F53
:1017F00003E1E26701D03DD00900F550DD6F09003B
:10180000F550DE6F0900F550DF6F09000900F55053
:10181000E96E0900F550EA6E090009000900F5506B
:10182000E06F0900F550E16F09000900F6CFE4F020
:10183000F7CFE5F0F8CFE6F0DDC0F6FFDEC0F7FF4A
:10184000DFC0F8FF0001E05302E1E15307E00900C7
:10185000F550EE6EE007F8E2E107F9D7E4C0F6FFD5
:10186000E5C0F7FFE6C0F8FF0001E207000EE35B0A
:04187000BFD71200CC
:0C187400D9CFE6FFDACFE6FFE1CFD9FFC5
:10188000E2CFDAFFE652E652FC0EDBCFDEFFDBCF23
:10189000DDFF010EDB50D76EDF50D66EE552E5520C
:0C18A000E552E5CFDAFFE7CFD9FF1200D8
:0418AC00D9CFE6FFAB
:1018B000DACFE6FFE1CFD9FFE2CFDAFFFD0EDB5052
:1018C0007F0BD56ED76AD66AF294FD0EDBAE02D0DE
:1018D000F28A01D0F29AD58EE552E5CFDAFFE7CF52
:0418E000D9FF12001A
:0C18E400D9CFE6FFDACFE6FFE1CFD9FF55
:1018F000E2CFDAFFFD0EDB407F0B3C0B106EC30E18
:10190000C2141010C26EC282E552E5CFDAFFE7CFF3
:04191000D9FF1200E9
:0C1914000001E951EA1107E0E96BEA6B01
:101920008A70AFEC07F0DAEC07F00001E751E8113C
:1019300007E0E76BE86B7CEC07F00001912B8A7203
:041940001DEF0AF09D
:0C194400036A026A100EE76ED8900636A7
:101950000736023603360B50025C0C50035805E381
:101960000B50025E0C50035A062AE72EF0D71200E5
:10197000F1949F0EE66E56EC0CF0E552D50EE66E35
:10198000FD0EE66E3AEC0CF0E552E552F28E1200D6
:10199000000EF36E00EE00F0060E01D81200EA60B1
:1019A00002D0EE6AFCD7F350E9601200EE6AFCD771
:1019B00015EE00F025EE00F0F86A0F9CEBEC0BF052
:0C19C00002EC02F060EC0BF0FBD7120010
:0419CC00C450136E82
:0E19D000126AC3501210F36E13C0F4FF12001F
:0219DE003132A4
:0719E00033343536373800BF
:0119E70000FF
:0619E8009390939212009F
:0219EE00878FE1
:0519F000979F000000BC
:0419F50000000000EE
:0219F9000000EC
:00000001FF
